{
  "_format": "hh-sol-artifact-1",
  "contractName": "FlashLoanUser",
  "sourceName": "contracts/FlashLoanUser.sol",
  "abi": [
    {
      "inputs": [
        {
          "internalType": "address",
          "name": "_exchange",
          "type": "address"
        }
      ],
      "stateMutability": "nonpayable",
      "type": "constructor"
    },
    {
      "anonymous": false,
      "inputs": [
        {
          "indexed": true,
          "internalType": "address",
          "name": "user",
          "type": "address"
        },
        {
          "indexed": true,
          "internalType": "address",
          "name": "token",
          "type": "address"
        },
        {
          "indexed": false,
          "internalType": "uint256",
          "name": "amount",
          "type": "uint256"
        }
      ],
      "name": "FlashLoanReceived",
      "type": "event"
    },
    {
      "inputs": [
        {
          "internalType": "address",
          "name": "_token",
          "type": "address"
        },
        {
          "internalType": "uint256",
          "name": "_amount",
          "type": "uint256"
        }
      ],
      "name": "getFlashLoan",
      "outputs": [],
      "stateMutability": "nonpayable",
      "type": "function"
    },
    {
      "inputs": [
        {
          "internalType": "address",
          "name": "_token",
          "type": "address"
        },
        {
          "internalType": "uint256",
          "name": "_amount",
          "type": "uint256"
        },
        {
          "internalType": "bytes",
          "name": "",
          "type": "bytes"
        }
      ],
      "name": "receiveFlashLoan",
      "outputs": [],
      "stateMutability": "nonpayable",
      "type": "function"
    }
  ],
  "bytecode": "0x608060405234801561001057600080fd5b506040516108a93803806108a98339818101604052810190610032919061011c565b336000806101000a81548173ffffffffffffffffffffffffffffffffffffffff021916908373ffffffffffffffffffffffffffffffffffffffff16021790555080600160006101000a81548173ffffffffffffffffffffffffffffffffffffffff021916908373ffffffffffffffffffffffffffffffffffffffff16021790555050610149565b600080fd5b600073ffffffffffffffffffffffffffffffffffffffff82169050919050565b60006100e9826100be565b9050919050565b6100f9816100de565b811461010457600080fd5b50565b600081519050610116816100f0565b92915050565b600060208284031215610132576101316100b9565b5b600061014084828501610107565b91505092915050565b610751806101586000396000f3fe608060405234801561001057600080fd5b50600436106100365760003560e01c8063958fa2801461003b5780639b2f3e3914610057575b600080fd5b6100556004803603810190610050919061048f565b610073565b005b610071600480360381019061006c91906104fe565b61020e565b005b600160009054906101000a900473ffffffffffffffffffffffffffffffffffffffff1673ffffffffffffffffffffffffffffffffffffffff163373ffffffffffffffffffffffffffffffffffffffff1614610103576040517f08c379a00000000000000000000000000000000000000000000000000000000081526004016100fa906105c1565b60405180910390fd5b8273ffffffffffffffffffffffffffffffffffffffff163073ffffffffffffffffffffffffffffffffffffffff167f55028aacd61f50d047c95442a9716279868810a25d19bd842a7b60913daee2a98460405161016091906105f0565b60405180910390a38273ffffffffffffffffffffffffffffffffffffffff1663a9059cbb600160009054906101000a900473ffffffffffffffffffffffffffffffffffffffff16846040518363ffffffff1660e01b81526004016101c592919061061a565b6020604051808303816000875af11580156101e4573d6000803e3d6000fd5b505050506040513d601f19601f82011682018060405250810190610208919061067b565b50505050565b600160009054906101000a900473ffffffffffffffffffffffffffffffffffffffff1673ffffffffffffffffffffffffffffffffffffffff1663e0232b4283836040518363ffffffff1660e01b815260040161026b9291906106df565b600060405180830381600087803b15801561028557600080fd5b505af1158015610299573d6000803e3d6000fd5b505050505050565b6000604051905090565b600080fd5b600080fd5b600073ffffffffffffffffffffffffffffffffffffffff82169050919050565b60006102e0826102b5565b9050919050565b6102f0816102d5565b81146102fb57600080fd5b50565b60008135905061030d816102e7565b92915050565b6000819050919050565b61032681610313565b811461033157600080fd5b50565b6000813590506103438161031d565b92915050565b600080fd5b600080fd5b6000601f19601f8301169050919050565b7f4e487b7100000000000000000000000000000000000000000000000000000000600052604160045260246000fd5b61039c82610353565b810181811067ffffffffffffffff821117156103bb576103ba610364565b5b80604052505050565b60006103ce6102a1565b90506103da8282610393565b919050565b600067ffffffffffffffff8211156103fa576103f9610364565b5b61040382610353565b9050602081019050919050565b82818337600083830152505050565b600061043261042d846103df565b6103c4565b90508281526020810184848401111561044e5761044d61034e565b5b610459848285610410565b509392505050565b600082601f83011261047657610475610349565b5b813561048684826020860161041f565b91505092915050565b6000806000606084860312156104a8576104a76102ab565b5b60006104b6868287016102fe565b93505060206104c786828701610334565b925050604084013567ffffffffffffffff8111156104e8576104e76102b0565b5b6104f486828701610461565b9150509250925092565b60008060408385031215610515576105146102ab565b5b6000610523858286016102fe565b925050602061053485828601610334565b9150509250929050565b600082825260208201905092915050565b7f466c6173684c6f616e557365723a204e6f742045786368616e676520636f6e7460008201527f7261637400000000000000000000000000000000000000000000000000000000602082015250565b60006105ab60248361053e565b91506105b68261054f565b604082019050919050565b600060208201905081810360008301526105da8161059e565b9050919050565b6105ea81610313565b82525050565b600060208201905061060560008301846105e1565b92915050565b610614816102d5565b82525050565b600060408201905061062f600083018561060b565b61063c60208301846105e1565b9392505050565b60008115159050919050565b61065881610643565b811461066357600080fd5b50565b6000815190506106758161064f565b92915050565b600060208284031215610691576106906102ab565b5b600061069f84828501610666565b91505092915050565b600082825260208201905092915050565b50565b60006106c96000836106a8565b91506106d4826106b9565b600082019050919050565b60006060820190506106f4600083018561060b565b61070160208301846105e1565b8181036040830152610712816106bc565b9050939250505056fea26469706673582212203c10838b0fe06ac55cab63906499432297651fb81df6bfe844b299c6d38a9a4e64736f6c634300081c0033",
  "linkReferences": {},
  "deployedLinkReferences": {}
}