{
  "_format": "hh-sol-artifact-1",
  "contractName": "Token",
  "sourceName": "contracts/Token.sol",
  "abi": [
    {
      "inputs": [
        {
          "internalType": "string",
          "name": "_name",
          "type": "string"
        },
        {
          "internalType": "string",
          "name": "_symbol",
          "type": "string"
        },
        {
          "internalType": "uint256",
          "name": "_totalSupply",
          "type": "uint256"
        }
      ],
      "stateMutability": "nonpayable",
      "type": "constructor"
    },
    {
      "anonymous": false,
      "inputs": [
        {
          "indexed": true,
          "internalType": "address",
          "name": "owner",
          "type": "address"
        },
        {
          "indexed": true,
          "internalType": "address",
          "name": "spender",
          "type": "address"
        },
        {
          "indexed": false,
          "internalType": "uint256",
          "name": "value",
          "type": "uint256"
        }
      ],
      "name": "Approval",
      "type": "event"
    },
    {
      "anonymous": false,
      "inputs": [
        {
          "indexed": true,
          "internalType": "address",
          "name": "from",
          "type": "address"
        },
        {
          "indexed": true,
          "internalType": "address",
          "name": "to",
          "type": "address"
        },
        {
          "indexed": false,
          "internalType": "uint256",
          "name": "value",
          "type": "uint256"
        }
      ],
      "name": "Transfer",
      "type": "event"
    },
    {
      "inputs": [
        {
          "internalType": "address",
          "name": "",
          "type": "address"
        },
        {
          "internalType": "address",
          "name": "",
          "type": "address"
        }
      ],
      "name": "allowance",
      "outputs": [
        {
          "internalType": "uint256",
          "name": "",
          "type": "uint256"
        }
      ],
      "stateMutability": "view",
      "type": "function"
    },
    {
      "inputs": [
        {
          "internalType": "address",
          "name": "_spender",
          "type": "address"
        },
        {
          "internalType": "uint256",
          "name": "_value",
          "type": "uint256"
        }
      ],
      "name": "approve",
      "outputs": [
        {
          "internalType": "bool",
          "name": "success",
          "type": "bool"
        }
      ],
      "stateMutability": "nonpayable",
      "type": "function"
    },
    {
      "inputs": [
        {
          "internalType": "address",
          "name": "",
          "type": "address"
        }
      ],
      "name": "balanceOf",
      "outputs": [
        {
          "internalType": "uint256",
          "name": "",
          "type": "uint256"
        }
      ],
      "stateMutability": "view",
      "type": "function"
    },
    {
      "inputs": [],
      "name": "decimals",
      "outputs": [
        {
          "internalType": "uint8",
          "name": "",
          "type": "uint8"
        }
      ],
      "stateMutability": "view",
      "type": "function"
    },
    {
      "inputs": [],
      "name": "name",
      "outputs": [
        {
          "internalType": "string",
          "name": "",
          "type": "string"
        }
      ],
      "stateMutability": "view",
      "type": "function"
    },
    {
      "inputs": [],
      "name": "owner",
      "outputs": [
        {
          "internalType": "address",
          "name": "",
          "type": "address"
        }
      ],
      "stateMutability": "view",
      "type": "function"
    },
    {
      "inputs": [],
      "name": "symbol",
      "outputs": [
        {
          "internalType": "string",
          "name": "",
          "type": "string"
        }
      ],
      "stateMutability": "view",
      "type": "function"
    },
    {
      "inputs": [],
      "name": "totalSupply",
      "outputs": [
        {
          "internalType": "uint256",
          "name": "",
          "type": "uint256"
        }
      ],
      "stateMutability": "view",
      "type": "function"
    },
    {
      "inputs": [
        {
          "internalType": "address",
          "name": "_to",
          "type": "address"
        },
        {
          "internalType": "uint256",
          "name": "_value",
          "type": "uint256"
        }
      ],
      "name": "transfer",
      "outputs": [
        {
          "internalType": "bool",
          "name": "success",
          "type": "bool"
        }
      ],
      "stateMutability": "nonpayable",
      "type": "function"
    },
    {
      "inputs": [
        {
          "internalType": "address",
          "name": "_from",
          "type": "address"
        },
        {
          "internalType": "address",
          "name": "_to",
          "type": "address"
        },
        {
          "internalType": "uint256",
          "name": "_value",
          "type": "uint256"
        }
      ],
      "name": "transferFrom",
      "outputs": [
        {
          "internalType": "bool",
          "name": "success",
          "type": "bool"
        }
      ],
      "stateMutability": "nonpayable",
      "type": "function"
    }
  ],
  "bytecode": "0x60806040526012600260006101000a81548160ff021916908360ff16021790555034801561002c57600080fd5b50604051611958380380611958833981810160405281019061004e91906102f7565b826000908161005d9190610599565b50816001908161006d9190610599565b50600260009054906101000a900460ff16600a61008a91906107da565b816100959190610825565b60038190555033600460006101000a81548173ffffffffffffffffffffffffffffffffffffffff021916908373ffffffffffffffffffffffffffffffffffffffff16021790555060035460056000600460009054906101000a900473ffffffffffffffffffffffffffffffffffffffff1673ffffffffffffffffffffffffffffffffffffffff1673ffffffffffffffffffffffffffffffffffffffff16815260200190815260200160002081905550505050610867565b6000604051905090565b600080fd5b600080fd5b600080fd5b600080fd5b6000601f19601f8301169050919050565b7f4e487b7100000000000000000000000000000000000000000000000000000000600052604160045260246000fd5b6101b38261016a565b810181811067ffffffffffffffff821117156101d2576101d161017b565b5b80604052505050565b60006101e561014c565b90506101f182826101aa565b919050565b600067ffffffffffffffff8211156102115761021061017b565b5b61021a8261016a565b9050602081019050919050565b60005b8381101561024557808201518184015260208101905061022a565b60008484015250505050565b600061026461025f846101f6565b6101db565b9050828152602081018484840111156102805761027f610165565b5b61028b848285610227565b509392505050565b600082601f8301126102a8576102a7610160565b5b81516102b8848260208601610251565b91505092915050565b6000819050919050565b6102d4816102c1565b81146102df57600080fd5b50565b6000815190506102f1816102cb565b92915050565b6000806000606084860312156103105761030f610156565b5b600084015167ffffffffffffffff81111561032e5761032d61015b565b5b61033a86828701610293565b935050602084015167ffffffffffffffff81111561035b5761035a61015b565b5b61036786828701610293565b9250506040610378868287016102e2565b9150509250925092565b600081519050919050565b7f4e487b7100000000000000000000000000000000000000000000000000000000600052602260045260246000fd5b600060028204905060018216806103d457607f821691505b6020821081036103e7576103e661038d565b5b50919050565b60008190508160005260206000209050919050565b60006020601f8301049050919050565b600082821b905092915050565b60006008830261044f7fffffffffffffffffffffffffffffffffffffffffffffffffffffffffffffffff82610412565b6104598683610412565b95508019841693508086168417925050509392505050565b6000819050919050565b600061049661049161048c846102c1565b610471565b6102c1565b9050919050565b6000819050919050565b6104b08361047b565b6104c46104bc8261049d565b84845461041f565b825550505050565b600090565b6104d96104cc565b6104e48184846104a7565b505050565b5b81811015610508576104fd6000826104d1565b6001810190506104ea565b5050565b601f82111561054d5761051e816103ed565b61052784610402565b81016020851015610536578190505b61054a61054285610402565b8301826104e9565b50505b505050565b600082821c905092915050565b600061057060001984600802610552565b1980831691505092915050565b6000610589838361055f565b9150826002028217905092915050565b6105a282610382565b67ffffffffffffffff8111156105bb576105ba61017b565b5b6105c582546103bc565b6105d082828561050c565b600060209050601f83116001811461060357600084156105f1578287015190505b6105fb858261057d565b865550610663565b601f198416610611866103ed565b60005b8281101561063957848901518255600182019150602085019450602081019050610614565b868310156106565784890151610652601f89168261055f565b8355505b6001600288020188555050505b505050505050565b7f4e487b7100000000000000000000000000000000000000000000000000000000600052601160045260246000fd5b60008160011c9050919050565b6000808291508390505b60018511156106f1578086048111156106cd576106cc61066b565b5b60018516156106dc5780820291505b80810290506106ea8561069a565b94506106b1565b94509492505050565b60008261070a57600190506107c6565b8161071857600090506107c6565b816001811461072e576002811461073857610767565b60019150506107c6565b60ff84111561074a5761074961066b565b5b8360020a9150848211156107615761076061066b565b5b506107c6565b5060208310610133831016604e8410600b841016171561079c5782820a9050838111156107975761079661066b565b5b6107c6565b6107a984848460016106a7565b925090508184048111156107c0576107bf61066b565b5b81810290505b9392505050565b600060ff82169050919050565b60006107e5826102c1565b91506107f0836107cd565b925061081d7fffffffffffffffffffffffffffffffffffffffffffffffffffffffffffffffff84846106fa565b905092915050565b6000610830826102c1565b915061083b836102c1565b9250828202610849816102c1565b915082820484148315176108605761085f61066b565b5b5092915050565b6110e2806108766000396000f3fe608060405234801561001057600080fd5b506004361061009e5760003560e01c806370a082311161006657806370a082311461015d5780638da5cb5b1461018d57806395d89b41146101ab578063a9059cbb146101c9578063dd62ed3e146101f95761009e565b806306fdde03146100a3578063095ea7b3146100c157806318160ddd146100f157806323b872dd1461010f578063313ce5671461013f575b600080fd5b6100ab610229565b6040516100b89190610b1d565b60405180910390f35b6100db60048036038101906100d69190610bd8565b6102b7565b6040516100e89190610c33565b60405180910390f35b6100f9610499565b6040516101069190610c5d565b60405180910390f35b61012960048036038101906101249190610c78565b61049f565b6040516101369190610c33565b60405180910390f35b610147610766565b6040516101549190610ce7565b60405180910390f35b61017760048036038101906101729190610d02565b610779565b6040516101849190610c5d565b60405180910390f35b610195610791565b6040516101a29190610d3e565b60405180910390f35b6101b36107b7565b6040516101c09190610b1d565b60405180910390f35b6101e360048036038101906101de9190610bd8565b610845565b6040516101f09190610c33565b60405180910390f35b610213600480360381019061020e9190610d59565b6108c8565b6040516102209190610c5d565b60405180910390f35b6000805461023690610dc8565b80601f016020809104026020016040519081016040528092919081815260200182805461026290610dc8565b80156102af5780601f10610284576101008083540402835291602001916102af565b820191906000526020600020905b81548152906001019060200180831161029257829003601f168201915b505050505081565b60008073ffffffffffffffffffffffffffffffffffffffff168373ffffffffffffffffffffffffffffffffffffffff1603610327576040517f08c379a000000000000000000000000000000000000000000000000000000000815260040161031e90610e45565b60405180910390fd5b81600560003373ffffffffffffffffffffffffffffffffffffffff1673ffffffffffffffffffffffffffffffffffffffff1681526020019081526020016000205410156103a9576040517f08c379a00000000000000000000000000000000000000000000000000000000081526004016103a090610eb1565b60405180910390fd5b81600660003373ffffffffffffffffffffffffffffffffffffffff1673ffffffffffffffffffffffffffffffffffffffff16815260200190815260200160002060008573ffffffffffffffffffffffffffffffffffffffff1673ffffffffffffffffffffffffffffffffffffffff168152602001908152602001600020819055508273ffffffffffffffffffffffffffffffffffffffff163373ffffffffffffffffffffffffffffffffffffffff167f8c5be1e5ebec7d5bd14f71427d1e84f3dd0314c0f7b2291e5b200ac8c7c3b925846040516104879190610c5d565b60405180910390a36001905092915050565b60035481565b60008073ffffffffffffffffffffffffffffffffffffffff168473ffffffffffffffffffffffffffffffffffffffff160361050f576040517f08c379a000000000000000000000000000000000000000000000000000000000815260040161050690610f1d565b60405180910390fd5b600073ffffffffffffffffffffffffffffffffffffffff168373ffffffffffffffffffffffffffffffffffffffff160361057e576040517f08c379a000000000000000000000000000000000000000000000000000000000815260040161057590610f89565b60405180910390fd5b81600560008673ffffffffffffffffffffffffffffffffffffffff1673ffffffffffffffffffffffffffffffffffffffff168152602001908152602001600020541015610600576040517f08c379a00000000000000000000000000000000000000000000000000000000081526004016105f790610eb1565b60405180910390fd5b81600660008673ffffffffffffffffffffffffffffffffffffffff1673ffffffffffffffffffffffffffffffffffffffff16815260200190815260200160002060003373ffffffffffffffffffffffffffffffffffffffff1673ffffffffffffffffffffffffffffffffffffffff1681526020019081526020016000205410156106bf576040517f08c379a00000000000000000000000000000000000000000000000000000000081526004016106b690610ff5565b60405180910390fd5b81600660008673ffffffffffffffffffffffffffffffffffffffff1673ffffffffffffffffffffffffffffffffffffffff16815260200190815260200160002060003373ffffffffffffffffffffffffffffffffffffffff1673ffffffffffffffffffffffffffffffffffffffff168152602001908152602001600020600082825461074b9190611044565b9250508190555061075d8484846108ed565b90509392505050565b600260009054906101000a900460ff1681565b60056020528060005260406000206000915090505481565b600460009054906101000a900473ffffffffffffffffffffffffffffffffffffffff1681565b600180546107c490610dc8565b80601f01602080910402602001604051908101604052809291908181526020018280546107f090610dc8565b801561083d5780601f106108125761010080835404028352916020019161083d565b820191906000526020600020905b81548152906001019060200180831161082057829003601f168201915b505050505081565b60008073ffffffffffffffffffffffffffffffffffffffff168373ffffffffffffffffffffffffffffffffffffffff16036108b5576040517f08c379a00000000000000000000000000000000000000000000000000000000081526004016108ac90610f89565b60405180910390fd5b6108c03384846108ed565b905092915050565b6006602052816000526040600020602052806000526040600020600091509150505481565b600081600560008673ffffffffffffffffffffffffffffffffffffffff1673ffffffffffffffffffffffffffffffffffffffff168152602001908152602001600020541015610971576040517f08c379a000000000000000000000000000000000000000000000000000000000815260040161096890610eb1565b60405180910390fd5b81600560008673ffffffffffffffffffffffffffffffffffffffff1673ffffffffffffffffffffffffffffffffffffffff16815260200190815260200160002060008282546109c09190611044565b9250508190555081600560008573ffffffffffffffffffffffffffffffffffffffff1673ffffffffffffffffffffffffffffffffffffffff1681526020019081526020016000206000828254610a169190611078565b925050819055508273ffffffffffffffffffffffffffffffffffffffff168473ffffffffffffffffffffffffffffffffffffffff167fddf252ad1be2c89b69c2b068fc378daa952ba7f163c4a11628f55a4df523b3ef84604051610a7a9190610c5d565b60405180910390a3600190509392505050565b600081519050919050565b600082825260208201905092915050565b60005b83811015610ac7578082015181840152602081019050610aac565b60008484015250505050565b6000601f19601f8301169050919050565b6000610aef82610a8d565b610af98185610a98565b9350610b09818560208601610aa9565b610b1281610ad3565b840191505092915050565b60006020820190508181036000830152610b378184610ae4565b905092915050565b600080fd5b600073ffffffffffffffffffffffffffffffffffffffff82169050919050565b6000610b6f82610b44565b9050919050565b610b7f81610b64565b8114610b8a57600080fd5b50565b600081359050610b9c81610b76565b92915050565b6000819050919050565b610bb581610ba2565b8114610bc057600080fd5b50565b600081359050610bd281610bac565b92915050565b60008060408385031215610bef57610bee610b3f565b5b6000610bfd85828601610b8d565b9250506020610c0e85828601610bc3565b9150509250929050565b60008115159050919050565b610c2d81610c18565b82525050565b6000602082019050610c486000830184610c24565b92915050565b610c5781610ba2565b82525050565b6000602082019050610c726000830184610c4e565b92915050565b600080600060608486031215610c9157610c90610b3f565b5b6000610c9f86828701610b8d565b9350506020610cb086828701610b8d565b9250506040610cc186828701610bc3565b9150509250925092565b600060ff82169050919050565b610ce181610ccb565b82525050565b6000602082019050610cfc6000830184610cd8565b92915050565b600060208284031215610d1857610d17610b3f565b5b6000610d2684828501610b8d565b91505092915050565b610d3881610b64565b82525050565b6000602082019050610d536000830184610d2f565b92915050565b60008060408385031215610d7057610d6f610b3f565b5b6000610d7e85828601610b8d565b9250506020610d8f85828601610b8d565b9150509250929050565b7f4e487b7100000000000000000000000000000000000000000000000000000000600052602260045260246000fd5b60006002820490506001821680610de057607f821691505b602082108103610df357610df2610d99565b5b50919050565b7f546f6b656e3a207370656e646572206973206164647265737320302e00000000600082015250565b6000610e2f601c83610a98565b9150610e3a82610df9565b602082019050919050565b60006020820190508181036000830152610e5e81610e22565b9050919050565b7f546f6b656e3a20696e73756666696369656e742066756e64732e000000000000600082015250565b6000610e9b601a83610a98565b9150610ea682610e65565b602082019050919050565b60006020820190508181036000830152610eca81610e8e565b9050919050565b7f546f6b656e3a2073656e646572206973206164647265737320302e0000000000600082015250565b6000610f07601b83610a98565b9150610f1282610ed1565b602082019050919050565b60006020820190508181036000830152610f3681610efa565b9050919050565b7f546f6b656e3a20726563697069656e74206973206164647265737320302e0000600082015250565b6000610f73601e83610a98565b9150610f7e82610f3d565b602082019050919050565b60006020820190508181036000830152610fa281610f66565b9050919050565b7f546f6b656e3a2066756e6473206e6f7420616c6c6f7765642e00000000000000600082015250565b6000610fdf601983610a98565b9150610fea82610fa9565b602082019050919050565b6000602082019050818103600083015261100e81610fd2565b9050919050565b7f4e487b7100000000000000000000000000000000000000000000000000000000600052601160045260246000fd5b600061104f82610ba2565b915061105a83610ba2565b925082820390508181111561107257611071611015565b5b92915050565b600061108382610ba2565b915061108e83610ba2565b92508282019050808211156110a6576110a5611015565b5b9291505056fea26469706673582212206da05f6405ccabd68488d378bd1855614b8202d37002b47ddaea1b36910f40b864736f6c634300081c0033",
  "linkReferences": {},
  "deployedLinkReferences": {}
}